:100000000C9434000C9451000C9451000C94510049
:100010000C9451000C9451000C9451000C9451001C
:100020000C9451000C9451000C9451000C94360126
:100030000C9451000C9451000C9451000C945100FC
:100040000C9451000C9451000C94F9020C9421036F
:100050000C9451000C9451000C9451000C945100DC
:100060000C9451000C94510011241FBECFEFD8E026
:10007000DEBFCDBF11E0A0E0B1E0ECE7F0E102C0EF
:1000800005900D92AE38B107D9F713E0AEE8B1E0B4
:1000900001C01D92A234B107E1F70E9467070C94DA
:1000A0003C080C940000FC01EA59FF4F1082FC014F
:1000B000EC59FF4F1082FC01EB59FF4F108208955D
:1000C000FC01EA59FF4F81E09081911180E0089591
:1000D000FC01EA59FF4F81E09081943609F080E0FD
:1000E0000895CF93DF934FB7F894DC01AA59BF4F1F
:1000F0003C91343681F0FC01EC59FF4F2081EC013A
:10010000C20FD11D68833F5F3C93233611F41082E8
:1001100002C02F5F20834FBFDF91CF9108952FB78B
:10012000F894DC01AA59BF4FFC01EB59FF4F9C9199
:10013000992341F080818F5F808391509C93843616
:1001400009F410822FBF0895FC01EB59FF4F208165
:10015000FC01E20FF11D80810895EFE8F1E020E05D
:1001600030E0722F9081911125C09091F2019F5F34
:100170009093F201A5E0A29FF001A39FF00D11243E
:10018000E257FE4F608361838283548343839130BF
:1001900079F4909181009360909381009091810017
:1001A0009B7F9093810090916F00926090936F007D
:1001B000872F08952F5F3F4F35962431310589F6FB
:1001C0008FEF0895AB01682F81E00C94AD00AB0177
:1001D000682F80E00C94AD00843174F495E08902BE
:1001E000F0011124E257FE4F11828091F201882321
:1001F00019F081508093F2018091F20181110AC0BF
:1002000080918100887F8093810080916F008D7F35
:1002100080936F000895EFE8F1E01082359681E059
:10022000E33FF807D1F71092F20180918100887FB7
:100230008093810080916F008D7F80936F0008957F
:100240000E940B01E0E8F0E080818C7F8083E1E890
:10025000F0E080818860808380818F7E808383EC62
:1002600099E0909389008093880008951F920F92DF
:100270000FB60F921124EF92FF920F931F932F93BB
:100280003F934F935F936F937F938F939F93AF931E
:10029000BF93CF93DF93EF93FF93CFE8D1E00EE8C6
:1002A00011E080E9E82E81E0F82E88818823B9F0FA
:1002B000F801808181508083811111C0EA81FB8126
:1002C0000995F7018081813011F4188208C08823D4
:1002D00019F08150F70180838881F8018083259689
:1002E0000B5F1F4FF5E0EF0EF11C81E0C33FD80715
:1002F000E1F6FF91EF91DF91CF91BF91AF919F9187
:100300008F917F916F915F914F913F912F911F91AD
:100310000F91FF90EF900F900FBE0F901F901895C8
:10032000282F277030E0253031059CF461110FC073
:10033000282F30E0209530952770332741E050E09A
:10034000022E01C0440F0A94EAF7842308958F5FB8
:1003500008950895282F30E0209530952770332791
:10036000682F70E881E001C0880F2A95EAF70895A8
:1003700091E0871301C090E0892F0895FC018281EC
:10038000882349F021819081922381E009F480E063
:10039000269521830895089590E0292F30E0F901F2
:1003A000E050FF4F4081841711F09F5FF6CF9532E8
:1003B00028F4F901EB5DFE4F8081089580E00895F7
:1003C000E5E2F1E020E030E0992787FD909541914A
:1003D00050E08417950731F02F5F3F4F26323105EB
:1003E000B1F707C0253229F0F901E050FF4F8081B5
:1003F000089580E0089581E00E9491026CE272E02D
:1004000085E00C94E20081E00E9491026CE272E0CF
:100410008FE00C94E20087EF91E00E946000811170
:100420001AC087EF91E00E94A4000E94E00180932F
:10043000F6010E94AA016093F3017093F401809386
:10044000F50183EF91E00E94BE01811102C00C947E
:10045000FB010C940302089580E00E9491026091D8
:10046000F3017091F4018091F5010E94B801882395
:1004700069F083EF91E00E94BE01811103C06BEF30
:1004800071E002C063E072E085E007C087EF91E0B1
:100490000E948F006BE072E08FE00C94E2000E94FB
:1004A0007C020E94200187EF91E00C945300CF93CF
:1004B000DF931F92CDB7DEB7682F87EF91E0698396
:1004C0000E94680069818111F8CF87EF91E00E9456
:1004D00060006981882349F087EF91E00E947100F4
:1004E0000F90DF91CF910C940B0287EF91E00F906A
:1004F000DF91CF910C947100239A2B98E0EBF0E000
:1005000080818F7B808387E28093B30080818260CB
:100510008083E1EBF0E08081846080831092B20000
:100520000895882331F08091B00080648093B000FA
:1005300008958091B0008F7B8093B0001092B2003C
:100540002B9808951092C50087E68093C400E0ECD4
:10055000F0E080818072808388E98093C10086E02A
:100560008093C20085EC92E00E9453008EE592E0F9
:100570000C9453008091C00085FFFCCF8091C10096
:1005800087768093C1000895CF938EE592E00E9414
:1005900060008111FACF8EE592E00E94A400C82F7E
:1005A0008EE592E00E948F008C2FCF910895CF931B
:1005B000DF931F92CDB7DEB7682F85EC92E0698399
:1005C0000E94680069818111F8CF85EC92E00E9459
:1005D00071008091C10080628093C1000F90DF9113
:1005E000CF9108958EE592E00E94600091E0892706
:1005F00008951F920F920FB60F9211242F933F93DD
:100600004F935F936F937F938F939F93AF93BF931A
:10061000EF93FF936091C6008EE592E00E94710017
:10062000FF91EF91BF91AF919F918F917F916F91CA
:100630005F914F913F912F910F900FBE0F901F90A0
:1006400018951F920F920FB60F9211242F933F937C
:100650004F935F936F937F938F939F93AF93BF93CA
:10066000EF93FF9385EC92E00E94600081110BC034
:1006700085EC92E00E94A4008093C60085EC92E095
:100680000E948F0005C08091C1008F7D8093C100C2
:10069000FF91EF91BF91AF919F918F917F916F915A
:1006A0005F914F913F912F910F900FBE0F901F9030
:1006B00018951F93CF93DF93EC0110E0FE01E10F3B
:1006C000F11D8081882321F01F5F0E94D702F6CFA1
:1006D0008DE00E94D7028AE0DF91CF911F910C94A8
:1006E000D702AF92BF92DF92EF92FF920F931F93C8
:1006F000CF93DF931F92CDB7DEB78C01D82E5C016C
:10070000FA2CFD18F61688F08F2D90E0F801E80F0E
:10071000F91F10820F90DF91CF911F910F91FF90E1
:10072000EF90DF90BF90AF90089569830E94C4025C
:10073000E82E90E00E9428086981892B29F3F501B1
:10074000E1925F01DDCFFC01862F41110CC0918148
:1007500021E030E0062E01C0220F0A94EAF720952E
:10076000292321830CC0413051F4DF019E9121E007
:1007700030E001C0220F6A95EAF7922B9C93BF01EB
:100780000895FB01DB0111972C9130E0082E02C087
:10079000359527950A94E2F720FF10C0908121E05B
:1007A00030E0082E01C0220F0A94EAF7442319F022
:1007B000922B908308952095292320830895FB018F
:1007C000908121E030E002C0220F331F8A95E2F7CA
:1007D000892F90E02823392381E0232B09F480E03E
:1007E0000895FB01208130E0082E02C03595279541
:1007F0000A94E2F7908120FF0BC021E030E0082E40
:1008000001C0220F0A94EAF7209529232083089536
:1008100021E030E0082E01C0220F0A94EAF7922B63
:1008200090830895FC01118210820895AF92BF92C7
:10083000CF92EF92FF920F93CF93DF93EC01CB0116
:10084000642F590141E00E94A303688379838A835E
:1008500041E0602FC5010E94A3036B837C838D83DD
:1008600041E06C2DC7010E94A3036E837F838887BC
:10087000688179818A8140E00E94C1036B817C811B
:100880008D8140E00E94C1036E817F81888540E0B8
:10089000DF91CF910F91FF90EF90CF90BF90AF90ED
:1008A0000C94C103EF920F931F93CF93DF93CDB7B7
:1008B000DEB729970FB6F894DEBF0FBECDBF098310
:1008C0001A832B833C834D835E836F83788789876C
:1008D0008E2D813059F030F08230C9F46F817885E7
:1008E000898507C069817A818B8103C06C817D8194
:1008F0008E8141E029960FB6F894DEBF0FBECDBFC2
:10090000DF91CF911F910F91EF900C94C103299625
:100910000FB6F894DEBF0FBECDBFDF91CF911F9110
:100920000F91EF900895EF920F931F93CF93DF9362
:10093000CDB7DEB729970FB6F894DEBF0FBECDBF97
:1009400009831A832B833C834D835E836F8378876F
:1009500089878E2D813059F030F08230C9F46F8153
:100960007885898507C069817A818B8103C06C8114
:100970007D818E8140E029960FB6F894DEBF0FBED0
:10098000CDBFDF91CF911F910F91EF900C94C103D8
:1009900029960FB6F894DEBF0FBECDBFDF91CF9181
:1009A0001F910F91EF900895EF920F931F93CF93A4
:1009B000DF93CDB7DEB729970FB6F894DEBF0FBE31
:1009C000CDBF09831A832B833C834D835E836F8362
:1009D000788789878E2D813059F030F08230C1F4CC
:1009E0006F817885898507C069817A818B8103C091
:1009F0006C817D818E8129960FB6F894DEBF0FBE83
:100A0000CDBFDF91CF911F910F91EF900C94F10327
:100A100029960FB6F894DEBF0FBECDBFDF91CF9100
:100A20001F910F91EF900895EF920F931F93CF9323
:100A3000DF93CDB7DEB729970FB6F894DEBF0FBEB0
:100A4000CDBF09831A832B833C834D835E836F83E1
:100A5000788789878E2D813039F020F0823029F413
:100A60008F8103C0898101C08C8129960FB6F894CB
:100A7000DEBF0FBECDBFDF91CF911F910F91EF90E1
:100A80000895CF92EF92FF920F93CF93DF93EC01F3
:100A90000E9416041986DF91CF910F91FF90EF907D
:100AA000CF900895EF920F931F93CF93DF93EC01B4
:100AB0006987613071F108F453C06230B9F1633075
:100AC00009F04EC0E12C088119812A813B814C81BB
:100AD0005D816E817F8188850E949304EE24E3947A
:100AE000088119812A813B814C815D816E817F81E2
:100AF00088850E94930492E0E92E088119812A8159
:100B00003B814C815D816E817F8188850E9452048A
:100B10004DC0E12C088119812A813B814C815D8186
:100B20006E817F8188850E94520426C0E12C088155
:100B300019812A813B814C815D816E817F8188850D
:100B40000E949304EE24E394088119812A813B8159
:100B50004C815D816E817F8188850E94520419C01D
:100B6000E12C088119812A813B814C815D816E8154
:100B70007F8188850E949304EE24E3940881198183
:100B80002A813B814C815D816E817F8188850E94B5
:100B9000930482E0E82E088119812A813B814C81EF
:100BA0005D816E817F8188850E949304DF91CF9162
:100BB0001F910F91EF9008950F931F93CF93DF93A1
:100BC000CDB7DEB72A970FB6F894DEBF0FBECDBF04
:100BD000892F2A960FB6F894DEBF0FBECDBFDF91E6
:100BE000CF911F910F91089580914003811141C0D1
:100BF00080914103813001F128F0823079F0833017
:100C000051F1089561E086E393E00E94520563E0AC
:100C10008CE293E00E94520582E019C063E08CE20E
:100C200093E00E94520562E086E393E00E94520541
:100C300081E0809341031BC061E08CE293E00E945D
:100C4000520563E086E393E00E94520583E08093BF
:100C5000410380E50FC062E08CE293E00E94520500
:100C600063E086E393E00E9452051092410384E121
:100C700001C08150809340030895CF92EF92FF927C
:100C80000F9387E0C82E9BE2E92EF12C06E02BE2C1
:100C900030E045E06BE270E086E393E00E944105BE
:100CA00022E0C22E38E2E32EF12C03E028E230E00D
:100CB00044E06BE270E08CE293E00E94410584E046
:100CC00080934103109240030F91FF90EF90CF90DB
:100CD000089580914103843021F4109241031092D1
:100CE000400364EF75E08AE00C94E70084E08093B1
:100CF00041031092400360E086E393E00E945205B6
:100D000060E08CE293E00C9452050F931F938823CC
:100D1000B9F0813061F500912C0310912D032091E1
:100D20002E0330912F034091300350913103609195
:100D3000320370913303809134039091350314C0D2
:100D40000091360310913703209138033091390315
:100D500040913A0350913B0360913C0370913D03F5
:100D600080913E0390913F030E94DC0500C01F91DB
:100D70000F9108950F931F9390914103943009F4BC
:100D8000A3C0882321F0813009F44FC09DC0009199
:100D90003603109137032091380330913903409185
:100DA0003A0350913B0360913C0370913D03809165
:100DB0003E0390913F030E94DC05813019F41092AC
:100DC000410380C00091360310913703209138030E
:100DD0003091390340913A0350913B0360913C03B9
:100DE00070913D0380913E0390913F030E94DC058A
:100DF000823029F300912C0310912D0320912E03B2
:100E000030912F03409130035091310360913203B0
:100E10007091330380913403909135030E94DC0577
:100E2000823009F451C083E04BC000912C03109133
:100E30002D0320912E0330912F03409130035091C8
:100E400031036091320370913303809134039091A8
:100E500035030E94DC05823011F481E031C000913D
:100E60002C0310912D0320912E0330912F034091DC
:100E700030035091310360913203709133038091BC
:100E80003403909135030E94DC05813031F30091E9
:100E90003603109137032091380330913903409184
:100EA0003A0350913B0360913C0370913D03809164
:100EB0003E0390913F030E94DC05823029F082E0DE
:100EC00080934103109240031F910F910895CF9397
:100ED000DF93CDB7DEB72F970FB6F894DEBF0FBE06
:100EE000CDBF0E94A2020E944F020E943D0678944C
:100EF0000E9476068BE491E00E94590362E0CE01E5
:100F000001960E9471036BE571E0CE0101960E948B
:100F10003008892BA9F480E00E9485068111EECF6C
:100F200081E00E9485068111E9CF0E94690682E571
:100F30000E94570280E20E94570281E591E0DCCFD7
:100F400069E671E0CE0101960E943008892BA1F478
:100F500080E00E948506882349F00E94760688E496
:100F60000E94570280E20E9457022BC081E00E943B
:100F700085068111F2CFC2CF64E571E0CE01019602
:100F80000E943008892B11F480E009C064E771E009
:100F9000CE0101960E943008892BC9F481E00E949D
:100FA0008506813041F068F0823041F0833061F491
:100FB0008DE591E0A1CF87E591E09ECF82E691E0BB
:100FC0009BCF8DE791E098CF8BE691E095CF67E7D7
:100FD00071E0CE0101960E943008892BA9F480E0CF
:100FE0000E948506811108C081E00E94850681115A
:100FF00003C08AE791E080CF80E00E94BA0686E4D1
:101000000E94570281E419C064E871E0CE010196A4
:101010000E943008892BC9F480E00E948506811166
:1010200005C081E00E948506882319F381E00E94B3
:10103000BA0686E40E94570282E40E94570280E2C8
:101040000E94570281E891E057CF87E891E054CFA2
:10105000803209F091110DC080528F55E0F708954C
:10106000FB01DC018D91019080190110D9F3990BDE
:0C1070000895992788270895F894FFCF71
:10107C00554284A4830124C3040274A344C282E3B2
:10108C0064D443038123146394B4C4FD7D3D1D0DCE
:10109C000585C5E5F5204142434445464748494A44
:1010AC004B4C4D4E4F505152535455565758595A0C
:1010BC003031323334353637383900535441525489
:1010CC00004F4E003F4100434C4541520053544F9A
:1010DC005000415050524F414348005354415445E5
:1010EC00455252003F42004641005359534F464629
:0E10FC00004F4B00464200434F4D45525200FC
:00000001FF
