:100000000C9434000C9446000C9446000C9446006A
:100010000C9446000C9446000C9446000C94460048
:100020000C9446000C9446000C9446000C94480036
:100030000C9446000C9446000C9446000C94460028
:100040000C9446000C9446000C9446000C94460018
:100050000C9446000C9446000C9446000C94460008
:100060000C9446000C94460011241FBECFEFD8E03C
:10007000DEBFCDBF11E0A0E0B1E001C01D92A63609
:10008000B107E1F70E94F5000C9407010C94000001
:100090001F920F920FB60F9211240F931F932F935D
:1000A0003F934F935F936F937F938F939F93AF9300
:1000B000BF93CF93DF93EF93FF93F89400E011E0A9
:1000C000C2E0D1E0FE0131978081882381F0F80100
:1000D0008081811109C0E981FA810995888188238D
:1000E00031F08150888303C08150F80180830B5F19
:1000F0001F4F2596F1E0C636DF0721F77894FF9170
:10010000EF91DF91CF91BF91AF919F918F917F91AF
:100110006F915F914F913F912F911F910F910F9090
:100120000FBE0F901F901895CF93DF93E1E0F1E0A1
:10013000A2E0B1E090E032E0208121111AC02091CC
:1001400064012F5F20936401EF012197688360832E
:100150008C9353834283222369F01092850010927E
:10016000840030936F009F5F35961596943121F788
:1001700002C09FEF892FDF91CF910895AB01682FC7
:1001800081E00C949400AB01682F80E00C94940003
:1001900095E08902F0011124E050FF4F118208958B
:1001A000E1E0F1E01082359681E0E536F807D1F71D
:1001B0000895109280008BE08093810087EA91E699
:1001C000909389008093880010928500109284009B
:1001D00082E080936F000C94D0001D9A0895809166
:1001E00065010E94C8001D9808958FEF84B90E9490
:1001F000D90078946DEE70E084E10E94C300809392
:1002000065016FEE70E08AEF0E94BE00FFCFF894A8
:02021000FFCF1E
:00000001FF
