:100000000C9434000C943E000C943E000C943E0082
:100010000C943E000C943E000C943E000C943E0068
:100020000C943E000C943E000C943E000C943E0058
:100030000C943E000C943E000C943E000C943E0048
:100040000C943E000C943E000C943E000C943E0038
:100050000C943E000C943E000C943E000C943E0028
:100060000C943E000C943E0011241FBECFEFD8E04C
:10007000DEBFCDBF0E94DE010C94B8020C940000DC
:10008000FC01862F41110CC0918121E030E0062E49
:1000900001C0220F0A94EAF72095292321830CC07E
:1000A000413051F4DF019E9121E030E001C0220F88
:1000B0006A95EAF7922B9C93BF010895FB01DB013F
:1000C00011972C9130E0082E02C0359527950A949F
:1000D000E2F720FF10C0908121E030E0082E01C03F
:1000E000220F0A94EAF7442319F0922B9083089583
:1000F0002095292320830895FB01908121E030E0A1
:1001000002C0220F331F8A95E2F7892F90E028233F
:10011000392381E0232B09F480E00895FB0120813D
:1001200030E0082E02C0359527950A94E2F79081B9
:1001300020FF0BC021E030E0082E01C0220F0A94FE
:10014000EAF7209529232083089521E030E0082E46
:1001500001C0220F0A94EAF7922B90830895FC01C4
:10016000118210820895AF92BF92CF92EF92FF92C8
:100170000F93CF93DF93EC01CB01642F590141E042
:100180000E944000688379838A8341E0602FC50123
:100190000E9440006B837C838D8341E06C2DC701FE
:1001A0000E9440006E837F838887688179818A817D
:1001B00040E00E945E006B817C818D8140E00E9466
:1001C0005E006E817F81888540E0DF91CF910F9145
:1001D000FF90EF90CF90BF90AF900C945E00EF92A5
:1001E0000F931F93CF93DF93CDB7DEB729970FB649
:1001F000F894DEBF0FBECDBF09831A832B833C83E7
:100200004D835E836F83788789878E2D813059F087
:1002100030F08230C9F46F817885898507C06981A3
:100220007A818B8103C06C817D818E8141E029962A
:100230000FB6F894DEBF0FBECDBFDF91CF911F91F7
:100240000F91EF900C945E0029960FB6F894DEBFE4
:100250000FBECDBFDF91CF911F910F91EF90089509
:10026000EF920F931F93CF93DF93CDB7DEB729970C
:100270000FB6F894DEBF0FBECDBF09831A832B8360
:100280003C834D835E836F83788789878E2D813091
:1002900059F030F08230C9F46F817885898507C0C4
:1002A00069817A818B8103C06C817D818E8140E080
:1002B00029960FB6F894DEBF0FBECDBFDF91CF9168
:1002C0001F910F91EF900C945E0029960FB6F89451
:1002D000DEBF0FBECDBFDF91CF911F910F91EF9089
:1002E0000895EF920F931F93CF93DF93CDB7DEB7AF
:1002F00029970FB6F894DEBF0FBECDBF09831A83CE
:100300002B833C834D835E836F83788789878E2D13
:10031000813059F030F08230C1F46F817885898561
:1003200007C069817A818B8103C06C817D818E8158
:1003300029960FB6F894DEBF0FBECDBFDF91CF91E7
:100340001F910F91EF900C948E0029960FB6F894A0
:10035000DEBF0FBECDBFDF91CF911F910F91EF9008
:100360000895EF920F931F93CF93DF93CDB7DEB72E
:1003700029970FB6F894DEBF0FBECDBF09831A834D
:100380002B833C834D835E836F83788789878E2D93
:10039000813039F020F0823029F48F8103C08981C7
:1003A00001C08C8129960FB6F894DEBF0FBECDBF79
:1003B000DF91CF911F910F91EF900895CF93DF932D
:1003C000CDB7DEB762970FB6F894DEBF0FBECDBFD4
:1003D00047E0C42E5BE2E52EF12C06E02BE230E094
:1003E00045E06BE270E0CE010A960E94B30062E045
:1003F000C62E78E2E72EF12C03E028E230E044E05C
:100400006BE270E0CE0101960E94B30082E0E82E1C
:100410000A851B852C853D854E855F856889798990
:100420008A890E94EF00E12C09811A812B813C818D
:100430004D815E816F81788589850E9471012FEFE2
:100440008DE292E2215080409040E1F700C0000030
:1004500092E0E92E0A851B852C853D854E855F85BA
:10046000688979898A890E947101EE24E3940A855A
:100470001B852C853D854E855F85688979898A89AC
:100480000E947101E12C09811A812B813C814D81EF
:100490005E816F81788589850E943001EE24E39426
:1004A00009811A812B813C814D815E816F81788524
:1004B00089850E9471012FEF8DE292E221508040E8
:1004C0009040E1F700C000000A851B852C853D8522
:1004D0004E855F85688979898A890E947101E12C3E
:1004E0000A851B852C853D854E855F8568897989C0
:1004F0008A890E947101EE24E39409811A812B817B
:100500003C814D815E816F81788589850E94710172
:1005100022E0E22E09811A812B813C814D815E818E
:100520006F81788589850E9471012FEF8DE292E2BB
:10053000215080409040E1F700C00000E12C0A8586
:100540001B852C853D854E855F85688979898A89DB
:100550000E94710132E0E32E09811A812B813C81D6
:100560004D815E816F81788589850E9471014ECFB2
:04057000F894FFCF2D
:00000001FF
