:100000000C9434000C9451000C9451000C94510049
:100010000C9451000C9451000C9451000C9451001C
:100020000C9451000C9451000C9451000C94450117
:100030000C9451000C9451000C9451000C945100FC
:100040000C9451000C9451000C94AD040C94D50404
:100050000C9451000C9451000C9451000C945100DC
:100060000C9451000C94510011241FBECFEFD8E026
:10007000DEBFCDBF11E0A0E0B1E0EAEDFCE002C0E0
:1000800005900D92A835B107D9F711E0A8E5B1E0C8
:1000900001C01D92A63AB107E1F70E94B4050C9485
:1000A0006B060C940000CF92EF92FF920F93CF93C8
:1000B000DF93EC010E940F031986DF91CF910F911E
:1000C000FF90EF90CF900895EF920F931F93CF93EF
:1000D000DF93EC016987613071F108F453C062303D
:1000E000B9F1633009F04EC0E12C088119812A81F1
:1000F0003B814C815D816E817F8188850E948C036C
:10010000EE24E394088119812A813B814C815D8131
:100110006E817F8188850E948C0392E0E92E0881A0
:1001200019812A813B814C815D816E817F81888527
:100130000E944B034DC0E12C088119812A813B812B
:100140004C815D816E817F8188850E944B0326C032
:10015000E12C088119812A813B814C815D816E816E
:100160007F8188850E948C03EE24E39408811981A5
:100170002A813B814C815D816E817F8188850E94CF
:100180004B0319C0E12C088119812A813B814C81E4
:100190005D816E817F8188850E948C03EE24E394CB
:1001A000088119812A813B814C815D816E817F812B
:1001B00088850E948C0382E0E82E088119812A81BB
:1001C0003B814C815D816E817F8188850E948C039B
:1001D000DF91CF911F910F91EF9008950F931F938F
:1001E000CF93DF93CDB7DEB72A970FB6F894DEBF73
:1001F0000FBECDBF892F2A960FB6F894DEBF0FBE73
:10020000CDBFDF91CF911F910F910895FC01118E09
:10021000128E138E089521E0FC01838D811120E060
:10022000822F089521E0FC01838D893109F020E0BF
:10023000822F0895FC012FB7F894938D993169F0BE
:10024000828DDF01A80FB11D6C939F5F938F883162
:1002500011F4128E02C08F5F828F2FBF0895FC01B0
:100260002FB7F894938D992341F0818D8F5F818F03
:100270009150938F893109F4118E2FBF0895FC019D
:10028000218DE20FF11D808108951F920F920FB60C
:100290000F9211242F933F934F935F936F937F930C
:1002A0008F939F93AF93BF93EF93FF9380916C01D4
:1002B000811141C080916D01813061F188F08230FF
:1002C000D9F08330D9F562E088E591E00E946400BE
:1002D00063E082E691E00E94640010926D0129C003
:1002E00061E082E691E00E94640063E088E591E0CD
:1002F0000E94640082E019C063E088E591E00E94FA
:10030000640062E082E691E00E94640081E08093F4
:100310006D010FC061E088E591E00E94640063E038
:1003200082E691E00E94640083E080936D0180E5A5
:1003300003C084E101C0815080936C01FF91EF9173
:10034000BF91AF919F918F917F916F915F914F91ED
:100350003F912F910F900FBE0F901F901895CF9245
:10036000EF92FF920F9387E0C82E9BE2E92EF12CCB
:1003700006E02BE230E045E06BE270E082E691E0DF
:100380000E94530022E0C22E38E2E32EF12C03E05B
:1003900028E230E044E06BE270E088E591E00E9402
:1003A0005300E0E8F0E080818E7F808380818D7F44
:1003B0008083E1E8F0E080818860808380818F7EA7
:1003C000808387EA91E6909389008093880084E097
:1003D00080936D0110926C010F91FF90EF90CF9080
:1003E000089580916D018430C1F410926D011092D6
:1003F0006C0180916F00826080936F00809181001A
:10040000816080938100809181008260809381006F
:10041000809181008B7F809381000895E1E8F0E076
:1004200080818E7F808380818D7F808380818B7FA0
:100430008083EFE6F0E080818D7F808384E080938D
:100440006D0110926C0160E082E691E00E94640010
:1004500060E088E591E00C9464000F931F9388237B
:10046000B9F0813061F50091580110915901209146
:100470005A0130915B0140915C0150915D016091A6
:100480005E0170915F01809160019091610114C0E3
:100490000091620110916301209164013091650126
:1004A0004091660150916701609168017091690106
:1004B00080916A0190916B010E94EE0000C01F9133
:1004C0000F9108950F931F9390916D01943009F44B
:1004D000A3C0882321F0813009F44FC09DC0009152
:1004E0006201109163012091640130916501409196
:1004F0006601509167016091680170916901809176
:100500006A0190916B010E94EE00813019F4109203
:100510006D0180C00091620110916301209164011E
:1005200030916501409166015091670160916801C9
:100530007091690180916A0190916B010E94EE00B7
:10054000823029F3009158011091590120915A01EC
:1005500030915B0140915C0150915D0160915E01C1
:1005600070915F0180916001909161010E94EE00A5
:10057000823009F451C083E04BC0009158011091C2
:10058000590120915A0130915B0140915C015091D9
:100590005D0160915E0170915F01809160019091B9
:1005A00061010E94EE00823011F481E031C00091BF
:1005B00058011091590120915A0130915B014091ED
:1005C0005C0150915D0160915E0170915F018091CD
:1005D0006001909161010E94EE00813031F3009141
:1005E0006201109163012091640130916501409195
:1005F0006601509167016091680170916901809175
:100600006A0190916B010E94EE00823029F082E035
:1006100080936D0110926C011F910F910895AF921C
:10062000BF92CF92EF92FF920F93CF93DF93EC01A3
:10063000CB01642F590141E00E943A046883798319
:100640008A8341E0602FC5010E943A046B837C835A
:100650008D8341E06C2DC7010E943A046E837F8335
:100660008887688179818A8140E00E9458046B8183
:100670007C818D8140E00E9458046E817F81888555
:1006800040E0DF91CF910F91FF90EF90CF90BF901E
:10069000AF900C945804EF920F931F93CF93DF9376
:1006A000CDB7DEB729970FB6F894DEBF0FBECDBF2A
:1006B00009831A832B833C834D835E836F83788702
:1006C00089878E2D813059F030F08230C9F46F81E6
:1006D0007885898507C069817A818B8103C06C81A7
:1006E0007D818E8141E029960FB6F894DEBF0FBE62
:1006F000CDBFDF91CF911F910F91EF900C945804D3
:1007000029960FB6F894DEBF0FBECDBFDF91CF9113
:100710001F910F91EF900895EF920F931F93CF9336
:10072000DF93CDB7DEB729970FB6F894DEBF0FBEC3
:10073000CDBF09831A832B833C834D835E836F83F4
:10074000788789878E2D813059F030F08230C9F456
:100750006F817885898507C069817A818B8103C023
:100760006C817D818E8140E029960FB6F894DEBFC2
:100770000FBECDBFDF91CF911F910F91EF900C94E1
:10078000580429960FB6F894DEBF0FBECDBFDF9197
:10079000CF911F910F91EF900895EF920F931F93B8
:1007A000CF93DF93CDB7DEB729970FB6F894DEBFAE
:1007B0000FBECDBF09831A832B833C834D835E8399
:1007C0006F83788789878E2D813059F030F08230A1
:1007D000C1F46F817885898507C069817A818B81B1
:1007E00003C06C817D818E8129960FB6F894DEBF9F
:1007F0000FBECDBFDF91CF911F910F91EF900C9461
:10080000880429960FB6F894DEBF0FBECDBFDF91E6
:10081000CF911F910F91EF900895EF920F931F9337
:10082000CF93DF93CDB7DEB729970FB6F894DEBF2D
:100830000FBECDBF09831A832B833C834D835E8318
:100840006F83788789878E2D813039F020F0823050
:1008500029F48F8103C0898101C08C8129960FB64C
:10086000F894DEBF0FBECDBFDF91CF911F910F91E6
:10087000EF900895FC01862F41110CC0918121E079
:1008800030E0062E01C0220F0A94EAF720952923B2
:1008900021830CC0413051F4DF019E9121E030E012
:1008A00001C0220F6A95EAF7922B9C93BF0108952D
:1008B000FB01DB0111972C9130E0082E02C0359529
:1008C00027950A94E2F720FF10C0908121E030E0E4
:1008D000082E01C0220F0A94EAF7442319F0922B44
:1008E000908308952095292320830895FB0190810A
:1008F00021E030E002C0220F331F8A95E2F7892FF2
:1009000090E02823392381E0232B09F480E0089527
:10091000FB01208130E0082E02C0359527950A940E
:10092000E2F7908120FF0BC021E030E0082E01C0EB
:10093000220F0A94EAF7209529232083089521E0C5
:1009400030E0082E01C0220F0A94EAF7922B908320
:100950000895FC011182108208951F920F920FB624
:100960000F9211242F933F934F935F936F937F9335
:100970008F939F93AF93BF93EF93FF936091C600C4
:100980008AE891E00E941A01FF91EF91BF91AF9127
:100990009F918F917F916F915F914F913F912F9197
:1009A0000F900FBE0F901F9018951F920F920FB6C9
:1009B0000F9211242F933F934F935F936F937F93E5
:1009C0008F939F93AF93BF93EF93FF938EE691E046
:1009D0000E940B01882331F08091C1008F7D8093AC
:1009E000C1000AC08EE691E00E943F018093C600DC
:1009F0008EE691E00E942F01FF91EF91BF91AF91A0
:100A00009F918F917F916F915F914F913F912F9126
:100A10000F900FBE0F901F901895E5ECF0E08081CD
:100A2000108287E68093C400E0ECF0E080818D7F47
:100A3000808380818062808388EB8093C10086E020
:100A40008093C2008AE891E00E9406018EE691E060
:100A50000C9406018091C00085FFFCCF8091C100FD
:100A60008F778093C1000895CF938AE891E00E9428
:100A70000B018111FACF8AE891E00E943F01C82F53
:100A80008AE891E00E942F018C2FCF910895CF9397
:100A9000DF931F92CDB7DEB7682F8EE691E06983B2
:100AA0000E94120169818111F8CF8EE691E00E94C7
:100AB0001A018091C10080628093C1000F90DF9184
:100AC000CF9108958091C000881F8827881F0895BE
:100AD0001F93CF93DF93EC0110E0FE01E10FF11DB6
:100AE0008081882321F01F5F0E944705F6CF8DE0AB
:100AF0000E9447058AE0DF91CF911F910C94470532
:100B0000AF92BF92DF92EF92FF920F931F93CF931A
:100B1000DF931F92CDB7DEB78C01D82E5C01FA2C83
:100B2000FD18F61688F08F2D90E0F801E80FF91FF8
:100B300010820F90DF91CF911F910F91FF90EF9056
:100B4000DF90BF90AF90089569830E943405E82E2E
:100B5000992787FD90950E9457066981892B19F383
:100B6000F501E1925F01DBCFCF93DF9300D000D09E
:100B70001F92CDB7DEB70E940D050E94AF01789499
:100B80000E940E0280E091E00E94680562E0CE01C2
:100B900001960E9480056FE071E0CE0101960E94EF
:100BA0005F06892B79F480E00E942D02811107C035
:100BB00081E00E942D02811102C00E94F1018AE4AD
:100BC00091E0E2CF6AE171E0CE0101960E945F06FA
:100BD000892B69F480E00E942D02882381F381E053
:100BE0000E942D02882359F30E940E02E8CF66E08E
:100BF00071E0CE0101960E945F06892B91F480E09E
:100C00000E942D02823039F0833041F0813019F595
:100C100089E091E0B9CF81E191E0B6CF8CE191E03C
:100C2000B3CF67E271E0CE0101960E945F06892B87
:100C3000A9F481E00E942D02823039F0833041F026
:100C4000813049F48AE291E09FCF82E391E09CCF2A
:100C50008DE391E099CF83E291E096CF64E471E077
:100C6000CE0101960E945F06892B29F480E00E9444
:100C7000620281E00CC06DE471E0CE0101960E9439
:100C80005F06892B89F481E00E94620280E00E9465
:100C90002D02823019F487E491E076CF81E00E9442
:100CA0002D028823C1F38BCF80E591E06DCF803298
:100CB00009F091110DC080528F55E0F70895FB01A6
:100CC000DC018D91019080190110D9F3990B0895E1
:0A0CD000992788270895F894FFCFB4
:100CDA005354415254003F41004120434C45415234
:100CEA00004120415050524F414348004120535443
:100CFA004F50004F4646003F42004220434C454178
:100D0A0052004220415050524F4143480042205322
:100D1A00544F50004641004E4F204F4B0046420070
:080D2A00434F4D4552520000F9
:00000001FF
