:100000000C9434000C943E000C943E000C943E0082
:100010000C943E000C943E000C943E000C943E0068
:100020000C943E000C943E000C943E000C943E0058
:100030000C943E000C943E000C943E000C943E0048
:100040000C943E000C943E000C943E000C943E0038
:100050000C943E000C943E000C943E000C943E0028
:100060000C943E000C943E0011241FBECFEFD8E04C
:10007000DEBFCDBF0E9491020C94F3020C940000ED
:10008000AF92BF92CF92EF92FF920F93CF93DF93F5
:10009000EC01CB01642F590141E00E946B016883A0
:1000A00079838A8341E0602FC5010E946B016B83D5
:1000B0007C838D8341E06C2DC7010E946B016E83B0
:1000C0007F838887688179818A8140E00E948901E5
:1000D0006B817C818D8140E00E9489016E817F81EE
:1000E000888540E0DF91CF910F91FF90EF90CF9006
:1000F000BF90AF900C948901EF920F931F93CF9311
:10010000DF93CDB7DEB729970FB6F894DEBF0FBEE9
:10011000CDBF09831A832B833C834D835E836F831A
:10012000788789878E2D813059F030F08230C9F47C
:100130006F817885898507C069817A818B8103C049
:100140006C817D818E8141E029960FB6F894DEBFE7
:100150000FBECDBFDF91CF911F910F91EF900C9407
:10016000890129960FB6F894DEBF0FBECDBFDF918F
:10017000CF911F910F91EF900895EF920F931F93DE
:10018000CF93DF93CDB7DEB729970FB6F894DEBFD4
:100190000FBECDBF09831A832B833C834D835E83BF
:1001A0006F83788789878E2D813059F030F08230C7
:1001B000C9F46F817885898507C069817A818B81CF
:1001C00003C06C817D818E8140E029960FB6F89442
:1001D000DEBF0FBECDBFDF91CF911F910F91EF908A
:1001E0000C94890129960FB6F894DEBF0FBECDBFDF
:1001F000DF91CF911F910F91EF900895EF920F93A0
:100200001F93CF93DF93CDB7DEB729970FB6F8943E
:10021000DEBF0FBECDBF09831A832B833C834D8382
:100220005E836F83788789878E2D813059F030F017
:100230008230C1F46F817885898507C069817A81B0
:100240008B8103C06C817D818E8129960FB6F894D5
:10025000DEBF0FBECDBFDF91CF911F910F91EF9009
:100260000C94B90129960FB6F894DEBF0FBECDBF2E
:10027000DF91CF911F910F91EF900895EF920F931F
:100280001F93CF93DF93CDB7DEB729970FB6F894BE
:10029000DEBF0FBECDBF09831A832B833C834D8302
:1002A0005E836F83788789878E2D813039F020F0C7
:1002B000823029F48F8103C0898101C08C81299605
:1002C0000FB6F894DEBF0FBECDBFDF91CF911F9167
:1002D0000F91EF900895FC01862F41110CC0918180
:1002E00021E030E0062E01C0220F0A94EAF72095A3
:1002F000292321830CC0413051F4DF019E9121E07C
:1003000030E001C0220F6A95EAF7922B9C93BF015F
:100310000895FB01DB0111972C9130E0082E02C0FB
:10032000359527950A94E2F720FF10C0908121E0CF
:1003300030E0082E01C0220F0A94EAF7442319F096
:10034000922B908308952095292320830895FB0103
:10035000908121E030E002C0220F331F8A95E2F73E
:10036000892F90E02823392381E0232B09F480E0B2
:100370000895FB01208130E0082E02C035952795B5
:100380000A94E2F7908120FF0BC021E030E0082EB4
:1003900001C0220F0A94EAF72095292320830895AB
:1003A00021E030E0082E01C0220F0A94EAF7922BD8
:1003B00090830895FC01118210820895CF92EF92EC
:1003C000FF920F93CF93DF93EC010E9440001986B8
:1003D000DF91CF910F91FF90EF90CF900895EF9222
:1003E0000F931F93CF93DF93EC016987613071F115
:1003F00008F453C06230B9F1633009F04EC0E12C0B
:10040000088119812A813B814C815D816E817F81C8
:1004100088850E94BD00EE24E394088119812A8119
:100420003B814C815D816E817F8188850E94BD000A
:1004300092E0E92E088119812A813B814C815D81FE
:100440006E817F8188850E947C004DC0E12C0881EF
:1004500019812A813B814C815D816E817F818885F4
:100460000E947C0026C0E12C088119812A813B81F1
:100470004C815D816E817F8188850E94BD00EE2464
:10048000E394088119812A813B814C815D816E81D1
:100490007F8188850E947C0019C0E12C0881198128
:1004A0002A813B814C815D816E817F8188850E949C
:1004B000BD00EE24E394088119812A813B814C819F
:1004C0005D816E817F8188850E94BD0082E0E82E7B
:1004D000088119812A813B814C815D816E817F81F8
:1004E00088850E94BD00DF91CF911F910F91EF9001
:1004F00008950F931F93CF93DF93CDB7DEB72A975D
:100500000FB6F894DEBF0FBECDBF892F2A960FB667
:10051000F894DEBF0FBECDBFDF91CF911F910F9139
:100520000895CF93DF93CDB7DEB764970FB6F894F5
:10053000DEBF0FBECDBF4E012BE0820E911C87E0C7
:10054000C82E9BE2E92EF12C06E02BE230E045E0DC
:100550006BE270E0C4010E94DE0122E0C22E38E2AC
:10056000E32EF12C03E028E230E044E06BE270E09F
:10057000CE0101965C010E94DE017401850161E0FB
:10058000C4010E94EF0163E0C5010E94EF019FEFEB
:1005900025EA8EE0915020408040E1F700C0000045
:1005A00062E0C7010E94EF0162E0C8010E94EF0112
:1005B0009FEF25EA8EE0915020408040E1F700C097
:1005C000000063E0C7010E94EF0161E0C8010E94E2
:1005D000EF019FEF25EA8EE0915020408040E1F747
:0A05E00000C00000CCCFF894FFCF5C
:00000001FF
