:100000000C9434000C9446000C9446000C9446006A
:100010000C9446000C9446000C9446000C94460048
:100020000C9446000C9446000C9446000C94460038
:100030000C9446000C9446000C9446000C94460028
:100040000C9446000C9446000C9487000C94AF006E
:100050000C9446000C9446000C9446000C94460008
:100060000C9446000C94460011241FBECFEFD8E03C
:10007000DEBFCDBF11E0A0E0B1E001C01D92A8330A
:10008000B107E1F70E9442010C944A010C94000070
:10009000FC01118E128E138E089521E0FC01838DD8
:1000A000811120E0822F089521E0FC01838D8931A8
:1000B00009F020E0822F0895FC012FB7F894938D6A
:1000C000993169F0828DDF01A80FB11D6C939F5F9C
:1000D000938F883111F4128E02C08F5F828F2FBFF1
:1000E0000895FC012FB7F894938D992341F0818DE9
:1000F0008F5F818F9150938F893109F4118E2FBFBB
:100100000895FC01218DE20FF11D808108951F9259
:100110000F920FB60F9211242F933F934F935F933B
:100120006F937F938F939F93AF93BF93EF93FF93BF
:100130006091C6008CE191E00E945C00FF91EF911C
:10014000BF91AF919F918F917F916F915F914F91EF
:100150003F912F910F900FBE0F901F9018951F92F7
:100160000F920FB60F9211242F933F934F935F93EB
:100170006F937F938F939F93AF93BF93EF93FF936F
:1001800080E091E00E944D00882331F08091C10011
:100190008F7D8093C1000AC080E091E00E948100C1
:1001A0008093C60080E091E00E947100FF91EF9182
:1001B000BF91AF919F918F917F916F915F914F917F
:1001C0003F912F910F900FBE0F901F901895E5EC67
:1001D000F0E08081108287E68093C400E0ECF0E0DC
:1001E00080818D7F808380818062808388EB809393
:1001F000C10086E08093C2008CE191E00E9448003B
:1002000080E091E00C9448008091C00085FFFCCF15
:100210008091C1008F778093C1000895CF938CE1C6
:1002200091E00E944D008111FACF8CE191E00E9493
:100230008100C82F8CE191E00E9471008C2FCF913A
:100240000895CF93DF931F92CDB7DEB7682F80E07C
:1002500091E069830E94540069818111F8CF80E0A8
:1002600091E00E945C008091C10080628093C10097
:100270000F90DF91CF9108958091C000881F88274B
:10028000881F08950E94E70078940E940E010E9442
:080290002101FBCFF894FFCF20
:00000001FF
