:100000000C9434000C9446000C9446000C9446006A
:100010000C9446000C9446000C9446000C94460048
:100020000C9446000C9446000C9446000C94460038
:100030000C9446000C9446000C9446000C94460028
:100040000C9446000C9446000C9446000C94460018
:100050000C9446000C9446000C9446000C94460008
:100060000C9446000C94460011241FBECFEFD8E03C
:10007000DEBFCDBF11E0A0E0B1E001C01D92AC3009
:10008000B107E1F70E9498020C94A8020C940000BA
:10009000FC01862F41110CC0918121E030E0062E39
:1000A00001C0220F0A94EAF72095292321830CC06E
:1000B000413051F4DF019E9121E030E001C0220F78
:1000C0006A95EAF7922B9C93BF010895FB01DB012F
:1000D00011972C9130E0082E02C0359527950A948F
:1000E000E2F720FF10C0908121E030E0082E01C02F
:1000F000220F0A94EAF7442319F0922B9083089573
:100100002095292320830895FB01908121E030E090
:1001100002C0220F331F8A95E2F7892F90E028232F
:10012000392381E0232B09F480E00895FB01DB01F2
:1001300011972C9130E0082E02C0359527950A942E
:10014000E2F7908120FF0BC021E030E0082E01C0D3
:10015000220F0A94EAF7209529232083089521E0AD
:1001600030E0082E01C0220F0A94EAF7922B908308
:100170000895FC0111821082089541E065E08BE250
:1001800090E00E9448006093090170930A018093F7
:100190000B0141E066E08BE290E00E944800609332
:1001A0000601709307018093080141E067E08BE24C
:1001B00090E00E94480060930301709304018093D3
:1001C00005016091090170910A0180910B0140E0E5
:1001D0000E946600609106017091070180910801FC
:1001E00040E00E94660060910301709104018091DB
:1001F000050140E00E94660010920201089580917E
:1002000002018630C1F0873051F18530E9F5609107
:10021000090170910A0180910B0140E00E94660083
:1002200060910601709107018091080141E00E94F0
:10023000660086E027C060910601709107018091F9
:10024000080140E00E946600609103017091040182
:100250008091050141E00E94660087E013C0609133
:100260000301709104018091050140E00E94660045
:100270006091090170910A0180910B0141E00E9497
:10028000660085E0809302010895CF93C82F8530E2
:1002900009F440C000F581116BC0609109017091B3
:1002A0000A0180910B0140E00E9466006091060106
:1002B000709107018091080140E00E946600609102
:1002C0000301709104018091050140E00E946600E5
:1002D000109202014DC0863071F1873009F048C09C
:1002E0006091090170910A0180910B0140E00E9428
:1002F000660060910601709107018091080140E05D
:100300000E946600609103017091040180910501D3
:1003100041E02AC06091090170910A0180910B01AE
:1003200041E00E9466006091060170910701809192
:10033000080140E010C06091090170910A018091AC
:100340000B0140E00E946600609106017091070178
:100350008091080141E00E94660060910301709164
:1003600004018091050140E00E946600C0930201F3
:10037000CF9108950E94BD000E94730280E00E9408
:100380004501109201011092000108950E9492020D
:10039000882309F482C00E948402853461F028F425
:1003A0008A3009F074C080E376C0823509F44EC00B
:1003B000833549F16CC080910101882309F467C03D
:1003C00085E00E94450185E08093010188E28093E9
:1003D000000185E40E948B028DE40E948B0285E47B
:1003E0000E948B0282E50E948B0287E40E948B02AE
:1003F00085E40E948B028EE40E948B0283E40E94BB
:100400008B0289E545C080910101882309F43FC032
:1004100080E00E944501109201011092000183E5E5
:100420000E948B0288E40E948B0285E50E948B0269
:1004300084E50E948B0284E40E948B028FE40E9478
:100440008B0287E50E948B028EE422C0809101011D
:1004500081111DC085E00E94450185E08093010166
:1004600088E28093000182E50E948B0285E40E946D
:100470008B0283E50E948B0284E50E948B0281E45B
:100480000E948B0282E50E948B0284E501C085E414
:100490000E948B028AE00C948B02089580910101E6
:1004A000882301F180910001811119C00E94FF0091
:1004B00080910101863049F0873061F0853091F4F8
:1004C00086E0809301018AE00BC087E08093010100
:1004D0008CE306C085E08093010188E201C0815071
:1004E0008093000108951092C50087E68093C400B0
:1004F000E0ECF0E080818D7F808388E18093C10013
:1005000086E08093C20008958091C00087FFFCCFF1
:100510008091C60008959091C00095FFFCCF809314
:10052000C60008958091C000881F8827881F0895FD
:100530000E94BA012FEF81EE94E02150804090405C
:10054000E1F700C000000E94C6010E944E02F2CFF7
:04055000F894FFCF4D
:00000001FF
