:100000000C9434000C943E000C943E000C943E0082
:100010000C943E000C943E000C943E000C943E0068
:100020000C943E000C943E000C943E000C943E0058
:100030000C943E000C943E000C943E000C943E0048
:100040000C943E000C943E000C943E000C943E0038
:100050000C943E000C943E000C943E000C943E0028
:100060000C943E000C943E0011241FBECFEFD8E04C
:10007000DEBFCDBF0E94B5000C9407010C940000B8
:10008000FC01862F41110CC0918121E030E0062E49
:1000900001C0220F0A94EAF72095292321830CC07E
:1000A000413051F4DF019E9121E030E001C0220F88
:1000B0006A95EAF7922B9C93BF010895FB01DB013F
:1000C00011972C9130E0082E02C0359527950A949F
:1000D000E2F720FF10C0908121E030E0082E01C03F
:1000E000220F0A94EAF7442319F0922B9083089583
:1000F0002095292320830895FB01908121E030E0A1
:1001000002C0220F331F8A95E2F7892F90E028233F
:10011000392381E0232B09F480E00895FB01DB0102
:1001200011972C9130E0082E02C0359527950A943E
:10013000E2F7908120FF0BC021E030E0082E01C0E3
:10014000220F0A94EAF7209529232083089521E0BD
:1001500030E0082E01C0220F0A94EAF7922B908318
:100160000895FC0111821082089541E065E08BE260
:1001700090E00E9440001B01482E41E066E08BE2C7
:1001800090E00E9440003B01882E41E067E08BE256
:1001900090E00E9440006B01E82E41E0842DB10107
:1001A0000E945E002FEF89E698E121508040904048
:1001B000E1F700C0000040E0842DB1010E945E0024
:1001C00041E0882DB3010E945E002FEF89E698E19F
:1001D000215080409040E1F700C0000040E0882DB1
:1001E000B3010E945E0041E08E2DB6010E945E00C8
:1001F0002FEF8BE792E9215080409040E1F700C05B
:10020000000040E08E2DB6010E945E00C6CFF8943B
:02021000FFCF1E
:00000001FF
