:100000000C9434000C943E000C943E000C943E0082
:100010000C943E000C943E000C943E000C943E0068
:100020000C943E000C943E000C943E000C943E0058
:100030000C943E000C943E000C943E000C943E0048
:100040000C943E000C943E000C943E000C943E0038
:100050000C943E000C943E000C943E000C943E0028
:100060000C943E000C943E0011241FBECFEFD8E04C
:10007000DEBFCDBF0E9465000C946C000C940000A4
:100080001092C50087E68093C400E0ECF0E0808128
:100090008D7F808388E18093C10084E08093C200DB
:1000A00008958091C00087FFFCCF8091C60008951D
:1000B0009091C00095FFFCCF8093C6000895809179
:1000C000C000881F8827881F08950E9440000E9452
:0C00D00051000E945800FBCFF894FFCFB5
:00000001FF
