:100000000C9434000C9446000C9446000C9446006A
:100010000C9446000C9446000C9446000C94460048
:100020000C9446000C9446000C9446000C94460038
:100030000C9446000C9446000C9446000C94460028
:100040000C9446000C9446000C9446000C94460018
:100050000C9446000C9446000C9446000C94460008
:100060000C9446000C94460011241FBECFEFD8E03C
:10007000DEBFCDBF11E0A0E0B1E001C01D92AB300A
:10008000B107E1F70E94BA010C9421020C94000020
:10009000FC01862F41110CC0918121E030E0062E39
:1000A00001C0220F0A94EAF72095292321830CC06E
:1000B000413051F4DF019E9121E030E001C0220F78
:1000C0006A95EAF7922B9C93BF010895FB01DB012F
:1000D00011972C9130E0082E02C0359527950A948F
:1000E000E2F720FF10C0908121E030E0082E01C02F
:1000F000220F0A94EAF7442319F0922B9083089573
:100100002095292320830895FB01908121E030E090
:1001100002C0220F331F8A95E2F7892F90E028232F
:10012000392381E0232B09F480E00895FB01DB01F2
:1001300011972C9130E0082E02C0359527950A942E
:10014000E2F7908120FF0BC021E030E0082E01C0D3
:10015000220F0A94EAF7209529232083089521E0AD
:1001600030E0082E01C0220F0A94EAF7922B908308
:100170000895FC0111821082089541E065E08BE250
:1001800090E00E94480060930701709308018093FB
:10019000090141E066E08BE290E00E944800609334
:1001A0000401709305018093060141E067E08BE252
:1001B00090E00E94480060930101709302018093D7
:1001C000030160910701709108018091090140E0ED
:1001D0000E94660060910401709105018091060102
:1001E00040E00E94660060910101709102018091DF
:1001F000030140E00E946600109200010895809182
:1002000000018630C1F0873051F18530E9F5609109
:100210000701709108018091090140E00E94660089
:1002200060910401709105018091060141E00E94F6
:10023000660086E027C060910401709105018091FD
:10024000060140E00E946600609101017091020188
:100250008091030141E00E94660087E013C0609135
:100260000101709102018091030140E00E9466004B
:1002700060910701709108018091090141E00E949D
:10028000660085E0809300010895CF93C82F8530E4
:1002900009F440C000F581116BC0609107017091B5
:1002A00008018091090140E00E946600609104010C
:1002B000709105018091060140E00E946600609106
:1002C0000101709102018091030140E00E946600EB
:1002D000109200014DC0863071F1873009F048C09E
:1002E00060910701709108018091090140E00E942E
:1002F000660060910401709105018091060140E063
:100300000E946600609101017091020180910301D9
:1003100041E02AC0609107017091080180910901B4
:1003200041E00E9466006091040170910501809196
:10033000060140E010C060910701709108018091B2
:10034000090140E00E94660060910401709105017E
:100350008091060141E00E94660060910101709168
:1003600002018091030140E00E946600C0930001F9
:10037000CF9108950E94BD002FEF8BE792E92150A5
:1003800080409040E1F700C0000086E00E944501F7
:10039000D7E0C6E02FEF83ED90E3215080409040FE
:1003A000E1F700C000000E94FF002FEF83ED90E313
:1003B000215080409040E1F700C000000E94FF0003
:1003C0002FEF83ED90E3215080409040E1F700C093
:1003D00000000E94FF002FEF83ED90E3215080404A
:1003E0009040E1F700C0000010920A0180E00E94F6
:1003F00045012FEF83ED90E3215080409040E1F7DD
:1004000000C00000D0930A0187E00E9445012FEF51
:1004100083ED90E3215080409040E1F700C0000060
:10042000C0930A0186E00E9445012FEF83ED90E31F
:10043000215080409040E1F700C000000E94FF0082
:06044000A9CFF894FFCFE4
:00000001FF
